:020000040800F2
:100000000080012095050008E5050008E5050008C9
:10001000E5050008E5050008E5050008000000000A
:10002000000000000000000000000000E5050008DE
:10003000E505000800000000E5050008E5050008EA
:10004000E5050008E5050008E5050008E5050008E8
:10005000E5050008E5050008E5050008E5050008D8
:10006000E5050008E5050008E5050008E5050008C8
:10007000E5050008E5050008E5050008E5050008B8
:10008000E5050008E5050008E5050008E5050008A8
:10009000E5050008E5050008E5050008E505000898
:1000A000E5050008E5050008E5050008E505000888
:1000B000E5050008E5050008E5050008E505000878
:1000C000E5050008E5050008E5050008E505000868
:1000D000E5050008E5050008E5050008E505000858
:1000E000E5050008E5050008E5050008E505000848
:1000F000E5050008E5050008E5050008E505000838
:10010000E5050008E5050008E5050008E505000827
:10011000E5050008E5050008E5050008E505000817
:10012000E5050008E5050008E5050008E505000807
:10013000E5050008E5050008E5050008E5050008F7
:10014000E5050008E5050008E5050008E5050008E7
:10015000E5050008E5050008E5050008E5050008D7
:10016000E5050008E5050008E5050008E5050008C7
:10017000E5050008E5050008E505000800000000A9
:08018000E5050008E505000893
:1001880010B5054C237833B9044B13B10448AFF3C9
:1001980000800123237010BD3C04002000000000F3
:1001A800C408000808B5034B1BB103490348AFF363
:1001B800008008BD0000000040040020C4080008BA
:1001C800A3F5803A704700BF174B002B08BF134BAD
:1001D8009D46FFF7F5FF00218B460F461348144A4A
:1001E800121A00F031FA0E4B002B00D098470D4B35
:1001F800002B00D098470020002104000D000D4876
:10020800002802D00C4800F0E1FA00F0F9F92000CB
:10021800290000F013F800F0E3F900BF000008001F
:100228000000000000000000000000003C04002066
:100238007C040020D5070008E107000880B582B0DB
:1002480000AF094B7B6000F011F805214FF090409A
:1002580000F05CF800BF7B685A1E7A60002BFAD168
:10026800014B7B60F1E700BF60E3160080B500AF8B
:1002780000F004F800F038F800BF80BD80B400AF8B
:10028800184B1B68174A43F001031360154B9B6812
:10029800144A43F00073936000BF124B1B6803F0CD
:1002A8000203002BF9D00F4B1B680E4A23F0F00312
:1002B80013600C4B1B680B4A43F070031360094B27
:1002C8001B68084A43F00803136000BF054B1B680E
:1002D80003F00203002BF9D000BF00BFBD465DF854
:1002E800047B70470010024080B500AF064BDB6C02
:1002F800054A43F00103D36405214FF0904000F014
:100308001AF800BF80BD00BF0010024080B483B05F
:1003180000AF78600B46FB707B685A69FB78012157
:1003280001FA03F35A407B685A6100BF0C37BD4697
:100338005DF8047B704780B483B000AF78600B46EB
:10034800FB707B681A68FB785B00032101FA03F3F2
:10035800DB431A407B681A607B681A68FB785B008D
:10036800012101FA03F31A437B681A607B685A6813
:10037800FB78012101FA03F3DB431A407B685A60DA
:100388007B68DA68FB785B00032101FA03F3DB433F
:100398001A407B68DA607B68DA68FB785B000221C8
:1003A80001FA03F31A437B68DA6000BF0C37BD46D5
:1003B8005DF8047B7047000080B400AF154BD3F89C
:1003C8008830144A43F47003C2F88830124B1B6813
:1003D800114A43F0010313600F4B00229A600E4B41
:1003E8001B680D4A23F0A85323F4102313600A4B0B
:1003F8004FF48052DA60084B1B68074A23F48023C5
:100408001360054B00229A6100BFBD465DF8047B6E
:10041800704700BF00ED00E00010024080B487B0D4
:1004280000AF4F4B1B6803F00803002B07D14C4B60
:10043800D3F894301B0A03F00F037B6105E0484BA7
:100448001B681B0903F00F037B61464A7B6952F85E
:1004580023307B61424B9B6803F00C030C2B66D85E
:1004680001A252F823F000BFA504000837050008D0
:100478003705000837050008AD04000837050008EF
:100488003705000837050008B504000837050008D7
:100498003705000837050008BD040008324A7B69A3
:1004A800136048E0304B314A1A6044E02E4B304A22
:1004B8001A6040E02A4BDB6803F00303FB60284B1B
:1004C800DB681B0903F007030133BB60FB68022BE1
:1004D80003D0FB68032B06D00BE0244ABB68B2FBB1
:1004E800F3F33B610BE0224ABB68B2FBF3F33B61D9
:1004F80005E07A69BB68B2FBF3F33B6100BF184BB8
:10050800DB681B0A03F07F023B6902FB03F33B61D4
:10051800134BDB685B0E03F0030301335B007B6066
:100528003A697B68B2FBF3F30F4A136003E00E4AA3
:100538007B69136000BF0A4B9B681B0903F00F031C
:100548000C4AD35C3B60084B1A683B6822FA03F3F9
:10055800054A136000BF1C37BD465DF8047B704731
:10056800001002401C090008040000200024F400C8
:1005780000127A0004090008880900080000002019
:100588003C0400203C0400207C040020DFF834D028
:10059800FFF712FF002103E00B4B5B584350043177
:1005A8000A480B4B42189A42F6D30A4A02E0002343
:1005B80042F8043B084B9A42F9D300F021F8FFF7C0
:1005C8003DFEFEE7008001208809000800000020A9
:1005D8003C0400203C0400207C040020FEE70000CE
:1005E80008B50021044600F08BF8044B1868C36B6B
:1005F80003B19847204600F05FF900BF7009000872
:1006080070B50D4E0D4D761BB61006D0002455F86A
:10061800043B01349847A642F9D1094E094D761B8F
:1006280000F04EF9B61006D0002455F8043B01340A
:100638009847A642F9D170BD7C0900087C090008DA
:10064800840900087C090008830730B548D0541E87
:10065800002A3FD0CAB2034601E0013C3AD303F86E
:10066800012B9D07F9D1032C2DD9CDB245EA0525DB
:100678000F2C45EA054536D9A4F1100222F00F0CDB
:1006880003F1200EE6444FEA121C03F1100242E97E
:10069800045542E9025510327245F8D10CF10102B5
:1006A80014F00C0F03EB021204F00F0C13D0ACF192
:1006B800040323F003030433134442F8045B934216
:1006C800FBD10CF003042CB1CAB21C4403F8012B73
:1006D8009C42FBD130BD64461346002CF4D1F9E7A7
:1006E80003461446BFE71A46A446E0E7024B13B197
:1006F800024800F06BB8704700000000E1070008EE
:100708002DE9F84F2F4B2DED028B834618680F46C5
:1007180000F082F82C4BD3F80080D8F84861AEB1CD
:1007280008EE10BA4FF001094FF0000A7468651E10
:100738000CD4013406EB840487B1D4F80031BB42F1
:100748000CD0013D6B1CA4F10404F5D1BDEC028B67
:100758001C4B1868BDE8F84F00F066B8736822684B
:10076800013BAB420CBF7560C4F800A0002AE8D07A
:10077800D6F88801D6F804B009FA05F101420BD180
:10078800904772685A4513D1D8F84831B342D8D047
:100798001E46002ECAD1D9E7D6F88C0101420CD1E9
:1007A800D4F8801018EE100A904772685A45EBD0BA
:1007B800D8F84861002EB9D1C8E7D4F8800090472E
:1007C800DFE700BF38040020700900080023014655
:1007D8001A46184600F02AB838B5084B084D5B1B76
:1007E8009C1007D0043B1D44013C55F80439984738
:1007F800002CF9D1BDE8384000F068B88809000835
:1008080084090008704700BF704700BF704700BFE9
:10081800704700BF704700BF704700BF0120704796
:1008280001207047704700BF704700BF2DE9F047AF
:10083800DFF880A00646DAF8000098460F46914691
:10084800FFF7EAFF1A4B1B68D3F8484124B36568E1
:100858001F2D26DC5EB96B1C0235DAF800006360D8
:1008680044F82570FFF7E0FF0020BDE8F08704EBAF
:1008780085010123C1F88890D4F88821AB401A4338
:10088800022EC4F88821C1F80881E4D1D4F88C215B
:100898001343C4F88C31DEE703F5A674C3F8484166
:1008A800D5E7DAF80000FFF7BFFF4FF0FF30DCE7CD
:1008B8007009000838040020FEE700BF00000000AF
:1008C800F8B500BFF8BC08BC9E467047F8B500BF35
:0808D800F8BC08BC9E46704705
:1008E0003A3D0A3D0F3D243D323D023D053D133D5D
:1008F0000D3D0C3D233D113D263D013D173D083D7D
:10090000093D000000000000000000000102030497
:10091000060708090000000001020304A086010088
:10092000400D0300801A060000350C0040420F0005
:1009300080841E0000093D0000127A000024F400AB
:1009400000366E010048E801006CDC023A3D0A3DC9
:100950000F3D243D323D023D053D133D0D3D0C3D17
:10096000233D113D263D013D173D083D093D000059
:040970001000002053
:0809740054F8FF7F01000000B0
:08097C00F5060008AD010008BA
:0409840089010008DD
:100988000000000000093D001000002000000000E9
:1009980000000000FC02002064030020CC030020BB
:1009A800000000000000000000000000000000003F
:1009B800000000000000000000000000000000002F
:1009C800000000000000000000000000000000001F
:1009D800000000000000000000000000000000000F
:1009E80000000000000000000000000000000000FF
:1009F80000000000000000000000000000000000EF
:100A080000000000000000000000000000000000DE
:100A180000000000000000000000000000000000CE
:100A280000000000000000000000000000000000BE
:100A380000000000000000000100000000000000AD
:100A48000E33CDAB34126DE6ECDE05000B00000072
:100A5800000000000000000000000000000000008E
:100A6800000000000000000000000000000000007E
:100A7800000000000000000000000000000000006E
:100A8800000000000000000000000000000000005E
:0C0DB800000000000000000060040020AB
:040000050800059555
:00000001FF
